:1000000009C016C015C014C013C012C037C010C03C
:100010000FC00EC011241FBECFE9CDBF20E0A0E667
:10002000B0E001C01D92A236B207E1F729D1B6C1F6
:10003000E7CFB89AC09880E28A95F1F70895B8980A
:10004000C09A80E28A95F1F70895C29880E28A9575
:10005000F1F70895C29A80E28A95F1F7089512BEE9
:100060008EE586BF109261001092600082E08FBD25
:1000700085E083BF89B7846089BF08951F920F927E
:100080000FB60F9211248F93809161008F5F809340
:1000900061008A3038F010926100809160008F5FBB
:1000A000809360008F910F900FBE0F901F90189556
:1000B000D1DFBFDFCADFC3CFC8DFBBDFCBDFBFCF3E
:1000C0000F931F93CF93DF93082FC8E0D0E010E881
:1000D000812F802311F0B3DF01C0ABDFBBDFB5DFC1
:1000E00016952197A9F7ABDFB5DFC6B3C095C170F0
:1000F000ACDF8C2FDF91CF911F910F9108951F934B
:10010000CF93DF93182FD8E0C0E0CC0FA3DFB099D6
:10011000C1609BDFD150C9F711118BDF9BDF95DFE9
:100120008EDF8C2FDF91CF911F9108951F93CF9376
:10013000DF93182FD62FC42FBBDF812F880FC0DF8E
:100140008D2FBEDF8C2FBCDFC82FB6DF8C2FDF9149
:10015000CF911F910895FF920F931F93CF93DF9339
:10016000D82FF62E8A018FEF9FEFFA0191838083BB
:100170009FDF8D2F880FA4DFC82F8F2DA1DF8C2349
:10018000C82FC17095DF8D2F880F816099DFC8233C
:1001900081E0B5DF90E0F8019183808380E0AFDFFC
:1001A000F80120813181382B3183208385DF8C2F2A
:1001B000DF91CF911F910F91FF90089514BEA895E4
:1001C0009CE088E10FB6F894A89581BD0FBE91BD63
:1001D000A89582E087B987E886B980E184BB86E08C
:1001E00088BB87B38E6087BBBC98C49A089540E0F3
:1001F00050E060E889E39ADF4FEF50E061E889E37F
:1002000095DF4FEF50E062E889E390DF4FEF50E079
:1002100063E889E38BDF40E050E068E889E386DF4C
:1002200040E050E069E889E381DF40E050E06AE8BF
:1002300089E37CDF43E050E06BE889E377DF40E16E
:1002400050E06CE889E372DF40E050E06DE889E35C
:100250006DDF48E050E06EE889E368DF48E250E097
:100260006FE889E363DF47E250E060E889E35ECF4F
:10027000882319F0C39AC1980895C398C19A089524
:10028000CF93DF9300D0CDB7DD2798DFE8DE7894F9
:10029000AEDFC12CD12CE12CF12C10E000E0A895B0
:1002A00080916000882309F476C01092600048E0D5
:1002B00050E06EE889E33ADF369A3699FECF84B192
:1002C00095B18C199D0997FD039695958795959500
:1002D0008795C80ED91E31E0C31632E0D30624F448
:1002E00022E3A22EB12C03C0AA24A394B12C111195
:1002F0007EDFAE014F5F5F4F68EB89E32CDF81113A
:100300000AC01F3F09F01F5F1A82198280E0B0DF28
:10031000E12CF12CC3CF91E0011190E049815A8189
:1003200021E0411583E0580708F420E0992349F0C3
:10033000222339F0EF2829F1E12CF12C10E001E023
:100340002AC081E04115534008F080E0992311F064
:1003500081111BC0402F50E090E084239523892B0E
:1003600039F08FEFE81AF80AAE14BF0498F40DC004
:10037000822F90E084239523892B61F0E12CF12CCE
:1003800009C0EE24E394F12C02C0E12CF12C10E022
:1003900000E001C010E0802F6BDF81CFF894FFCF29
:00000001FF
