:1000000009C016C015C014C013C012C037C010C03C
:100010000FC00EC011241FBECFE9CDBF20E0A0E667
:10002000B0E001C01D92A236B207E1F727D1D5C1D9
:10003000E7CFB89AC09880E28A95F1F70895B8980A
:10004000C09A80E28A95F1F70895C29880E28A9575
:10005000F1F70895C29A80E28A95F1F7089512BEE9
:100060008EE586BF109261001092600082E08FBD25
:1000700085E083BF89B7846089BF08951F920F927E
:100080000FB60F9211248F93809161008F5F809340
:1000900061008A3038F010926100809160008F5FBB
:1000A000809360008F910F900FBE0F901F90189556
:1000B000D1DFBFDFCADFC3CFC8DFBBDFCBDFBFCF3E
:1000C0000F931F93CF93DF93082FC8E0D0E010E881
:1000D000812F802311F0B3DF01C0ABDFBBDFB5DFC1
:1000E00016952197A9F7ABDFB5DFC6B3C095C170F0
:1000F000ACDF8C2FDF91CF911F910F9108951F934B
:10010000CF93DF93182FD8E0C0E0CC0FA3DFB099D6
:10011000C1609BDFD150C9F711118BDF9BDF95DFE9
:100120008EDF8C2FDF91CF911F9108951F93CF9376
:10013000DF93182FD62FC42FBBDF812F880FC0DF8E
:100140008D2FBEDF8C2FBCDFC82FB6DF8C2FDF9149
:10015000CF911F910895FF920F931F93CF93DF9339
:10016000D82FF62E8A018FEF9FEFFA0191838083BB
:100170009FDF8D2F880FA4DFC82F8F2DA1DF8C2349
:10018000C82FC17095DF8D2F880F816099DFC8233C
:1001900081E0B5DF90E0F8019183808380E0AFDFFC
:1001A000F80120813181382B3183208385DF8C2F2A
:1001B000DF91CF911F910F91FF90089514BEA895E4
:1001C0009CE088E10FB6F894A89581BD0FBE91BD63
:1001D000A89582E087B987E886B980E184BB86E08C
:1001E00088BB87B38E6087BB089540E050E060E82D
:1001F00089E39CDF4FEF50E061E889E397DF4FEF41
:1002000050E062E889E392DF4FEF50E063E889E372
:100210008DDF40E050E068E889E388DF40E050E0AF
:1002200069E889E383DF40E050E06AE889E37EDF44
:1002300043E050E06BE889E379DF40E150E06CE8AF
:1002400089E374DF40E050E06DE889E36FDF48E068
:1002500050E06EE889E36ADF48E250E06FE889E346
:1002600065DF47E250E060E889E360CF882319F05A
:10027000C39AC1980895C398C19A0895CF93DF9304
:1002800000D0CDB7DD279ADFEADE7894AEDFA12C6F
:10029000B12CE12CF12C10E000E03DE9832E33E09D
:1002A000932EA89580916000882309F482C0109253
:1002B000600048E050E06EE889E338DF369A36990E
:1002C000FECF84B195B18A199B0997FD0396959548
:1002D000879595958795A80EB91E6401CA18DB0805
:1002E000D7FE03C053E0C50ED11CD594C794D59456
:1002F000C7941C141D041CF0CC24C394D12C1111E0
:1003000074DFAE014F5F5F4F68EB89E324DF81113B
:100310000BC01F3F09F01F5F1A82198280E0A6DF21
:10032000E12CF12C00E0BDCF91E0011190E029819A
:100330003A8141E0211583E0380708F440E0992331
:1003400071F0442361F05FEFE51AF50A82E0E816E8
:10035000F10458F1E12CF12C10E001E02AC081E019
:100360002115334008F080E0992311F081111BC062
:10037000202F30E090E082239323892B59F08FEFD8
:10038000E81AF80AC6016CE370E016D08E159F05D6
:1003900078F409C0842F90E082239323892B41F0C5
:1003A000E12CF12C05C0E12CF12C10E000E001C0A3
:1003B00010E0802F5BDF75CF0024552704C0080EA6
:1003C000591F880F991F009729F076956795B8F304
:0E03D0007105B9F7802D952F0895F894FFCF91
:00000001FF
