:1000000009C016C015C014C013C012C037C010C03C
:100010000FC00EC011241FBECFE9CDBF20E0A0E667
:10002000B0E001C01D92A336B207E1F751D1DAC1A9
:10003000E7CFB89AC09880E28A95F1F70895B8980A
:10004000C09A80E28A95F1F70895C29880E28A9575
:10005000F1F70895C29A80E28A95F1F7089512BEE9
:100060008EE586BF109262001092610082E08FBD23
:1000700085E083BF89B7846089BF08951F920F927E
:100080000FB60F9211248F93809162008F5F80933F
:1000900062008A3038F010926200809161008F5FB8
:1000A000809361008F910F900FBE0F901F90189555
:1000B000D1DFBFDFCADFC3CFC8DFBBDFCBDFBFCF3E
:1000C0000F931F93CF93DF93082FC8E0D0E010E881
:1000D000812F802311F0B3DF01C0ABDFBBDFB5DFC1
:1000E00016952197A9F7ABDFB5DFC6B3C095C170F0
:1000F000ACDF8C2FDF91CF911F910F9108951F934B
:10010000CF93DF93182FD8E0C0E0CC0FA3DFB099D6
:10011000C1609BDFD150C9F711118BDF9BDF95DFE9
:100120008EDF8C2FDF91CF911F9108951F93CF9376
:10013000DF93182FD62FC42FBBDF812F880FC0DF8E
:100140008D2FBEDF8C2FBCDFC82FB6DF8C2FDF9149
:10015000CF911F910895FF920F931F93CF93DF9339
:10016000D82FF62E8A018FEF9FEFFA0191838083BB
:100170009FDF8D2F880FA4DFC82F8F2DA1DF8C2349
:10018000C82FC17095DF8D2F880F816099DFC8233C
:1001900081E0B5DF90E0F8019183808380E0AFDFFC
:1001A000F80120813181382B3183208385DF8C2F2A
:1001B000DF91CF911F910F91FF90089514BEA895E4
:1001C0009CE088E10FB6F894A89581BD0FBE91BD63
:1001D000A89582E087B987E886B980E184BB86E08C
:1001E00088BB87B38E6087BBBC98C49A08951F9361
:1001F000CF93DF9300D0CDB7DD271A82198240E07C
:1002000050E060E889E392DF4FEF50E061E889E376
:100210008DDF4FEF50E062E889E388DF4FEF50E079
:1002200063E889E383DFAE014F5F5F4F62EB89E3F1
:1002300092DF882321F0898111E0823308F010E0F9
:1002400040E050E068E889E371DF40E050E069E8B1
:1002500089E36CDF40E050E06AE889E367DF43E070
:1002600050E06BE889E362DF40E150E06CE889E34D
:100270005DDF40E050E06DE889E358DF48E050E0A2
:100280006EE889E353DF111103C048E250E002C079
:1002900040E250E06FE889E349DF47E250E060E880
:1002A00089E344DFCE5FCDBFDF91CF911F910895E9
:1002B00090916000981731F0992311F0C19A05C010
:1002C000C39A03C098B3957F98BB8093600008954C
:1002D000CF93DF9300D0CDB7DD2780E090E07BD0D7
:1002E000E82E81E090E077D0F12CFE2CEE24E80E91
:1002F000F11C8FEFE816F80619F4E12C33E0F32E29
:100300005DDFADDE789473DFC12CD12CB12C10E011
:1003100000E0A895809161008823D9F310926100D4
:10032000369A3699FECF84B195B18C199D0997FD07
:1003300003969595879595958795C80ED91E81E06A
:10034000C81682E0D8061CF482E3A82E01C0A12CB6
:10035000B1104DDFAE014F5F5F4F68EB89E3FBDE0D
:10036000811108C08FEFB812B3941A82198280E00D
:100370009FDFCDCF29813A8181E02E153F0510F412
:1003800080E007C0113028F40F5F0230F0F410E075
:100390001EC091E02E153F0510F090E002C0113014
:1003A00090F01123A1F0992359F00F5F202F30E036
:1003B0008A2DAA0C990B821793072CF011E007C025
:1003C000811103C004C010E001C011E000E0812FE2
:1003D0006FDFB12C9ECFE199FECF8EBBE09A9927BB
:0803E0008DB30895F894FFCFDE
:00000001FF
