:1000000009C016C015C014C013C012C037C010C03C
:100010000FC00EC011241FBECFE9CDBF20E0A0E667
:10002000B0E001C01D92A236B207E1F747D1DCC1B2
:10003000E7CFB89AC09880E28A95F1F70895B8980A
:10004000C09A80E28A95F1F70895C29880E28A9575
:10005000F1F70895C29A80E28A95F1F7089512BEE9
:100060008EE586BF109261001092600082E08FBD25
:1000700085E083BF89B7846089BF08951F920F927E
:100080000FB60F9211248F93809161008F5F809340
:1000900061008A3038F010926100809160008F5FBB
:1000A000809360008F910F900FBE0F901F90189556
:1000B000D1DFBFDFCADFC3CFC8DFBBDFCBDFBFCF3E
:1000C0000F931F93CF93DF93082FC8E0D0E010E881
:1000D000812F802311F0B3DF01C0ABDFBBDFB5DFC1
:1000E00016952197A9F7ABDFB5DFC6B3C095C170F0
:1000F000ACDF8C2FDF91CF911F910F9108951F934B
:10010000CF93DF93182FD8E0C0E0CC0FA3DFB099D6
:10011000C1609BDFD150C9F711118BDF9BDF95DFE9
:100120008EDF8C2FDF91CF911F9108951F93CF9376
:10013000DF93182FD62FC42FBBDF812F880FC0DF8E
:100140008D2FBEDF8C2FBCDFC82FB6DF8C2FDF9149
:10015000CF911F910895FF920F931F93CF93DF9339
:10016000D82FF62E8A018FEF9FEFFA0191838083BB
:100170009FDF8D2F880FA4DFC82F8F2DA1DF8C2349
:10018000C82FC17095DF8D2F880F816099DFC8233C
:1001900081E0B5DF90E0F8019183808380E0AFDFFC
:1001A000F80120813181382B3183208385DF8C2F2A
:1001B000DF91CF911F910F91FF90089514BEA895E4
:1001C0009CE088E10FB6F894A89581BD0FBE91BD63
:1001D000A89582E087B987E886B980E184BB86E08C
:1001E00088BB87B38E6087BB08951F93CF93DF933F
:1001F00000D0CDB7DD271A82198240E050E060E8D8
:1002000089E394DF4FEF50E061E889E38FDF4FEF40
:1002100050E062E889E38ADF4FEF50E063E889E36A
:1002200085DFAE014F5F5F4F62EB89E394DF882388
:1002300021F0898111E0823308F010E040E050E0C5
:1002400068E889E373DF40E050E069E889E36EDF46
:1002500040E050E06AE889E369DF43E050E06BE8A2
:1002600089E364DF40E150E06CE889E35FDF40E070
:1002700050E06DE889E35ADF48E050E06EE889E33A
:1002800055DF111103C048E250E002C040E250E0E7
:100290006FE889E34BDF47E250E060E889E346DF3F
:1002A000CE5FCDBFDF91CF911F910895882319F0C4
:1002B000C39AC1980895C398C19A0895CF93DF93C4
:1002C00000D0CDB7DD277ADFCADE78948EDFA12C8F
:1002D000B12CF12CE12C00E010E04DE9842E43E03C
:1002E000942EA89580916000882309F47AC010921A
:1002F0006000369A3699FECF84B195B18A199B0970
:1003000097FD03969595879595958795A80EB91EA7
:100310006401CA18DB08D7FE03C053E0C50ED11C28
:10032000D594C794D594C7941C141D041CF0CC24F8
:10033000C394D12CF11059DFAE014F5F5F4F68EBD2
:1003400089E309DF81110BC08FEFF812F3941A8251
:10035000198280E0ABDFE12C00E010E0C2CF91E039
:10036000E11090E029813A8141E0211553E0350701
:1003700008F440E0992359F0442349F00F5F1F4FE0
:10038000F12C0230110538F1EE24E39428C081E00D
:100390002115334008F080E0992311F081111DC030
:1003A0002E2D30E090E082239323892B61F00F5FA4
:1003B0001F4F86E0CC0CDD1C8A95E1F7F12CC016AE
:1003C000D10678F40BC0842F90E082239323F12C84
:1003D000892B29F406C0E12C04C0F12CE12C00E0AB
:0C03E00010E08E2D63DF7DCFF894FFCF7E
:00000001FF
