:100000000EC01DC01CC01BC01AC019C018C017C02C
:1000100016C015C015C013C012C011C010C01124E5
:100020001FBECFE5D1E0DEBFCDBF10E0A0E6B0E05F
:1000300001C01D92A236B107E1F7FCD0D8C1E0CFD4
:100040001F920F920FB60F9211248F93809161002F
:100050008F5F809361008A3038F010926100809148
:1000600060008F5F809360008F910F900FBE0F90A4
:100070001F901895C29A8AE18A95F1F700C0B89A44
:100080008AE18A95F1F700C0C2988AE18A95F1F772
:1000900000C0B8988AE18A95F1F700C00895C29827
:1000A0008AE18A95F1F700C0B89A8AE18A95F1F75A
:1000B00000C0C29A8AE18A95F1F700C0B8988AE137
:1000C0008A95F1F700C0089528E030E090E815C067
:1000D000B8984AE14A95F1F700C0C29A4AE14A95B8
:1000E000F1F700C0C2984AE14A95F1F700C0969531
:1000F000215031092115310549F0492F482341F795
:10010000B89A4AE14A95F1F700C0E7CFB8988AE17A
:100110008A95F1F700C0C29A9AE19A95F1F700C06A
:1001200086B380958170C2984AE14A95F1F700C084
:100130000895282F98E080E0880FC29A3AE13A9516
:10014000F1F700C0B0998160C2983AE13A95F1F7B1
:1001500000C0915089F7222329F0B89A9AE19A9524
:10016000F1F700C0C29A3AE13A95F1F700C0C2989F
:100170009AE19A95F1F700C0B8983AE13A95F1F70B
:1001800000C00895CF93DF9300D01F92CDB7DEB7A4
:100190004B836A8389836EDF8981880F95DF6A814B
:1001A000862F92DF4B81842F8FDF898378DF8981CF
:1001B0000F900F900F90DF91CF9108950F931F93A1
:1001C000CF93DF931F92CDB7DEB7182F698352DF2D
:1001D000812F880F79DF6981862F76DF4BDF812FB2
:1001E000880F816071DF81E0A4DF082F10E080E0DC
:1001F000A0DF182B54DFC8010F90DF91CF911F9122
:100200000F91089514BEA8952CE088E190E00FB6F8
:10021000F894A89581BD0FBE21BDA89582E087B94D
:1002200087E886B980E184BB86E088BB87B38E60AF
:1002300087BB0895E7DF12BE8EE489BD109261008E
:100240001092600082E08ABD85E083BF89B780613B
:1002500089BF789440E050E060E889E393DF4FEF96
:1002600050E061E889E38EDF4FEF50E062E889E318
:1002700089DF4FEF50E063E889E384DF40E050E03E
:1002800068E889E37FDF40E050E069E889E37ADFEE
:1002900040E050E06AE889E375DF43E050E06BE856
:1002A00089E370DF40E150E06CE889E36BDF40E018
:1002B00050E06DE889E366DF48E050E06EE889E3EE
:1002C00061DF40E150E06FE889E35CDF47E250E046
:1002D00060E889E357DFC0E0D0E0D12CC12C3DE9D4
:1002E000E32E33E0F32EA89580916000882309F473
:1002F00051C01092600048E050E06EE889E342DFB0
:10030000369A3699FECF84B195B18C1B9D0B97FD23
:100310006CC09595879595958795C80FD91FC7018E
:100320008C1B9D0B97FD5FC08C011595079515954E
:100330000795101611060CF03FC0AE0155276D2F22
:1003400080E220DF68EB89E339DF21E0D11020E093
:1003500041E0811533E0930710F540E051E081154D
:10036000934068F150E02D2D30E0852F90E08223FE
:100370009323892B71F1C3948C2D90E008171907F2
:100380005CF4C12CC398C19AD12CA89580916000CF
:100390008111AFCFDD20B1F3C39AC198A4CF22233E
:1003A000E9F2C3948C2D90E0029764F3DD24D3949A
:1003B000C12CC39AC19897CF01E010E0BECF2111A4
:1003C000E0CF2D2D30E0852F90E082239323892BE1
:1003D00091F6842F90E082239323892BD9F2C12CAC
:1003E000C39AC19880CF03969FCF039692CFF8947B
:0203F000FFCF3D
:00000001FF
