:1000000009C016C015C014C013C012C037C010C03C
:100010000FC00EC011241FBECFE9CDBF20E0A0E667
:10002000B0E001C01D92A236B207E1F749D1E3C1A9
:10003000E7CFB89AC09880E28A95F1F70895B8980A
:10004000C09A80E28A95F1F70895C29880E28A9575
:10005000F1F70895C29A80E28A95F1F7089512BEE9
:100060008EE586BF109261001092600082E08FBD25
:1000700085E083BF89B7846089BF08951F920F927E
:100080000FB60F9211248F93809161008F5F809340
:1000900061008A3038F010926100809160008F5FBB
:1000A000809360008F910F900FBE0F901F90189556
:1000B000D1DFBFDFCADFC3CFC8DFBBDFCBDFBFCF3E
:1000C0000F931F93CF93DF93082FC8E0D0E010E881
:1000D000812F802311F0B3DF01C0ABDFBBDFB5DFC1
:1000E00016952197A9F7ABDFB5DFC6B3C095C170F0
:1000F000ACDF8C2FDF91CF911F910F9108951F934B
:10010000CF93DF93182FD8E0C0E0CC0FA3DFB099D6
:10011000C1609BDFD150C9F711118BDF9BDF95DFE9
:100120008EDF8C2FDF91CF911F9108951F93CF9376
:10013000DF93182FD62FC42FBBDF812F880FC0DF8E
:100140008D2FBEDF8C2FBCDFC82FB6DF8C2FDF9149
:10015000CF911F910895FF920F931F93CF93DF9339
:10016000D82FF62E8A018FEF9FEFFA0191838083BB
:100170009FDF8D2F880FA4DFC82F8F2DA1DF8C2349
:10018000C82FC17095DF8D2F880F816099DFC8233C
:1001900081E0B5DF90E0F8019183808380E0AFDFFC
:1001A000F80120813181382B3183208385DF8C2F2A
:1001B000DF91CF911F910F91FF90089514BEA895E4
:1001C0009CE088E10FB6F894A89581BD0FBE91BD63
:1001D000A89582E087B987E886B980E184BB86E08C
:1001E00088BB87B38E6087BBBC98C49A08951F9361
:1001F000CF93DF9300D0CDB7DD271A82198240E07C
:1002000050E060E889E392DF4FEF50E061E889E376
:100210008DDF4FEF50E062E889E388DF4FEF50E079
:1002200063E889E383DFAE014F5F5F4F62EB89E3F1
:1002300092DF882321F0898111E0823308F010E0F9
:1002400040E050E068E889E371DF40E050E069E8B1
:1002500089E36CDF40E050E06AE889E367DF43E070
:1002600050E06BE889E362DF40E150E06CE889E34D
:100270005DDF40E050E06DE889E358DF48E050E0A2
:100280006EE889E353DF111103C048E250E002C079
:1002900040E250E06FE889E349DF47E250E060E880
:1002A00089E344DFCE5FCDBFDF91CF911F910895E9
:1002B000882319F0C39AC1980895C398C19A0895E4
:1002C000CF93DF9300D0CDB7DD2780E090E08CD0D6
:1002D000E82E81E090E088D0F12CFE2CEE24E80E90
:1002E000F11C8FEFE816F80619F4E12C33E0F32E39
:1002F00065DFB5DE78947BDFA12CB12C00E0D12C3A
:1003000010E0A89580916000882309F46AC01092DB
:100310006000369A3699FECF84B195B18A199B094F
:1003200097FD03969595879595958795A80EB91E87
:1003300081E0A81682E0B8061CF482E3C82E02C051
:10034000CC24C394011153DFAE014F5F5F4F68EBC4
:1003500089E301DF811108C00F3F09F00F5F1A82A6
:10036000198280E0A5DFCBCF91E0D11090E04981E8
:100370005A8121E04E155F0508F420E0992341F0F1
:10038000222331F01F5F00E0123028F5D12C29C064
:1003900081E04E155F0508F080E0992311F081118E
:1003A0001DC04D2D50E090E084239523892B59F0FA
:1003B0001F5F212F30E08C2DCC0C990B00E08217B1
:1003C00093077CF40CC0822F90E08423952300E0F7
:1003D000892B31F406C0DD24D39402C000E0D12C77
:1003E00010E08D2D65DF8DCFE199FECF8EBBE09AB9
:0A03F00099278DB30895F894FFCF0C
:00000001FF
