:100000000EC01DC01CC01BC01AC019C018C017C02C
:1000100016C015C015C013C012C011C010C01124E5
:100020001FBECFE5D1E0DEBFCDBF20E0A0E6B0E04F
:1000300001C01D92A236B207E1F758D121C2E0CF2C
:100040001F920F920FB60F9211248F93809161002F
:100050008F5F809361008A3038F010926100809148
:1000600060008F5F809360008F910F900FBE0F90A4
:100070001F901895C29A8AE18A95F1F700C0B89A44
:100080008AE18A95F1F700C0C2988AE18A95F1F772
:1000900000C0B8988AE18A95F1F700C00895C29827
:1000A0008AE18A95F1F700C0B89A8AE18A95F1F75A
:1000B00000C0C29A8AE18A95F1F700C0B8988AE137
:1000C0008A95F1F700C0089528E030E090E813C069
:1000D000B8984AE14A95F1F700C0C29A4AE14A95B8
:1000E000F1F700C0C2984AE14A95F1F700C0969531
:1000F0002150310949F0492F482351F7B89A4AE174
:100100004A95F1F700C0E9CFB8988AE18A95F1F7EE
:1001100000C0C29A9AE19A95F1F700C086B3809523
:100120008170C2984AE14A95F1F700C00895282FDE
:1001300098E080E0880FC29A3AE13A95F1F700C062
:10014000B0998160C2983AE13A95F1F700C09150B8
:1001500089F7222329F0B89A9AE19A95F1F700C01D
:10016000C29A3AE13A95F1F700C0C2989AE19A959D
:10017000F1F700C0B8983AE13A95F1F700C0089558
:10018000CF93DF9300D01F92CDB7DEB74B836A8346
:10019000898370DF8981880F97DF6A81862F94DFDA
:1001A0004B81842F91DF89837ADF89810F900F90B3
:1001B0000F90DF91CF910895EF92FF920F931F93CD
:1001C000CF93DF931F92CDB7DEB7E82E8A018FEF72
:1001D0009FEFFA019183808369834CDF8E2D880F16
:1001E00073DFF82E6981862F6FDF8F218170F82EE3
:1001F00041DF8E2D880F816067DFF82281E097DF75
:1002000090E0F8019183808380E091DFF801208104
:100210003181382B3183208342DF8F2D0F90DF9186
:10022000CF911F910F91FF90EF90089514BEA89564
:100230009CE088E10FB6F894A89581BD0FBE91BDF2
:10024000A89582E087B987E886B980E184BB86E01B
:1002500088BB87B38E6087BB089540E050E060E8BC
:1002600089E38EDF4FEF50E061E889E389DF4FEFEC
:1002700050E062E889E384DF4FEF50E063E889E310
:100280007FDF40E050E068E889E37ADF40E050E05B
:1002900069E889E375DF40E050E06AE889E370DFF0
:1002A00043E050E06BE889E36BDF40E150E06CE84D
:1002B00089E366DF40E050E06DE889E361DF48E014
:1002C00050E06EE889E35CDF40E250E06FE889E3EC
:1002D00057DF47E250E060E889E352CF811103C065
:1002E000C398C19A0895C39AC1980895CF93DF9394
:1002F00000D0CDB7DEB79ADF12BE8EE489BD109272
:1003000061001092600082E08ABD85E083BF89B7FA
:10031000806189BF7894A1DF00E010E0E12CF12C2E
:10032000B12CA12CEDE9CE2EE3E0DE2EA895809134
:100330006000882309F45BC01092600048E050E040
:100340006EE889E31DDF369A3699FECF24B135B1C8
:10035000201B310B37FD74C03595279535952795B2
:10036000020F131F9601201B310B37FD6CC0359512
:10037000279535952795121613060CF04FC0C90125
:1003800082959295907F9827807F9827821B930B68
:100390004C01880C991C880C991CA8015527612FC9
:1003A00080E2EEDEB11026C0AE014F5F5F4F68EB1A
:1003B00089E302DF882349F181E0A11080E02981EF
:1003C0003A8191E0211543E0340708F490E0882356
:1003D00049F1992339F18FEFE81AF80A42E0E4165F
:1003E000F10458F1E12CF12CB12CAA24A3948A2D0C
:1003F00075DF9CCF32DFAE014F5F5F4F68EB89E363
:10040000DBDE8111D9CF4FEFB412B3941A82198277
:1004100080E064DFE12CF12CA12C88CF8CE3882EC6
:10042000912CBBCF61E02115334008F060E08823B8
:1004300069F0662359F0E12CF12CB12CA12CD7CF17
:100440002D5F3F4F89CF2D5F3F4F91CF4A2D50E019
:10045000262F30E024233523232B41F08FEFE81A99
:10046000F80A8E149F0438F3B12CC1CF892F90E085
:1004700084239523892BC1F3E12CF12CB12CB7CF28
:04048000F894FFCF1E
:00000001FF
