:1000000009C016C015C014C013C012C037C010C03C
:100010000FC00EC011241FBECFE9CDBF20E0A0E667
:10002000B0E001C01D92A236B207E1F74FD1E7C19F
:10003000E7CFB89AC09880E28A95F1F70895B8980A
:10004000C09A80E28A95F1F70895C29880E28A9575
:10005000F1F70895C29A80E28A95F1F7089512BEE9
:100060008EE586BF109261001092600082E08FBD25
:1000700085E083BF89B7846089BF08951F920F927E
:100080000FB60F9211248F93809161008F5F809340
:1000900061008A3038F010926100809160008F5FBB
:1000A000809360008F910F900FBE0F901F90189556
:1000B000D1DFBFDFCADFC3CFC8DFBBDFCBDFBFCF3E
:1000C0000F931F93CF93DF93082FC8E0D0E010E881
:1000D000812F802311F0B3DF01C0ABDFBBDFB5DFC1
:1000E00016952197A9F7ABDFB5DFC6B3C095C170F0
:1000F000ACDF8C2FDF91CF911F910F9108951F934B
:10010000CF93DF93182FD8E0C0E0CC0FA3DFB099D6
:10011000C1609BDFD150C9F711118BDF9BDF95DFE9
:100120008EDF8C2FDF91CF911F9108951F93CF9376
:10013000DF93182FD62FC42FBBDF812F880FC0DF8E
:100140008D2FBEDF8C2FBCDFC82FB6DF8C2FDF9149
:10015000CF911F910895FF920F931F93CF93DF9339
:10016000D82FF62E8A018FEF9FEFFA0191838083BB
:100170009FDF8D2F880FA4DFC82F8F2DA1DF8C2349
:10018000C82FC17095DF8D2F880F816099DFC8233C
:1001900081E0B5DF90E0F8019183808380E0AFDFFC
:1001A000F80120813181382B3183208385DF8C2F2A
:1001B000DF91CF911F910F91FF90089514BEA895E4
:1001C0009CE088E10FB6F894A89581BD0FBE91BD63
:1001D000A89582E087B987E886B980E184BB86E08C
:1001E00088BB87B38E6087BB08951F93CF93DF933F
:1001F00000D0CDB7DD271A82198240E050E060E8D8
:1002000089E394DF4FEF50E061E889E38FDF4FEF40
:1002100050E062E889E38ADF4FEF50E063E889E36A
:1002200085DFAE014F5F5F4F62EB89E394DF8111A1
:1002300002C010E00BC089819A8199279A83898333
:100240008032910511F08997A1F711E040E050E06C
:1002500068E889E36BDF40E050E069E889E366DF46
:1002600040E050E06AE889E361DF43E050E06BE89A
:1002700089E35CDF40E150E06CE889E357DF40E070
:1002800050E06DE889E352DF48E050E06EE889E332
:100290004DDF111103C048E250E002C040E250E0DF
:1002A0006FE889E343DF47E250E060E889E33EDF3F
:1002B000CE5FCDBFDF91CF911F910895882319F0B4
:1002C000C39AC1980895C398C19A0895CF93DF93B4
:1002D00000D0CDB7DD2772DFC2DE789486DFA12C97
:1002E000B12CE12CF12C10E000E04DE9842E43E02C
:1002F000942EA89580916000882309F47DC0109207
:10030000600048E050E06EE889E310DF369A3699E5
:10031000FECF84B195B18A199B0997FD03969595F7
:10032000879595958795A80EB91E6401CA18DB08B4
:10033000D7FE03C053E0C50ED11CD594C794D59405
:10034000C7941C141D041CF0CC24C394D12C11118F
:100350004CDFAE014F5F5F4F68EB89E3FCDE81113C
:100360000BC01F3F09F01F5F1A82198280E0A6DFD1
:10037000E12CF12C00E0BDCF91E0011190E029814A
:100380003A8141E0211583E0380708F440E09923E1
:1003900049F0442339F0EF2829F1E12CF12C10E049
:1003A00001E02AC081E02115334008F080E0992364
:1003B00011F081111BC0202F30E090E082239323A5
:1003C000892B39F08FEFE81AF80ACE14DF0498F47D
:1003D0000DC0842F90E082239323892B61F0E12CC0
:1003E000F12C09C0EE24E394F12C02C0E12CF12C95
:1003F00010E000E001C010E0802F60DF7ACFF894B9
:02040000FFCF2C
:00000001FF
